{
  "_format": "hh-sol-artifact-1",
  "contractName": "Messenger",
  "sourceName": "contracts/Messenger.sol",
  "abi": [
    {
      "inputs": [
        {
          "internalType": "uint256",
          "name": "id",
          "type": "uint256"
        }
      ],
      "name": "getMessage",
      "outputs": [
        {
          "components": [
            {
              "internalType": "address",
              "name": "from",
              "type": "address"
            },
            {
              "internalType": "address",
              "name": "to",
              "type": "address"
            },
            {
              "internalType": "string",
              "name": "message",
              "type": "string"
            }
          ],
          "internalType": "struct Messenger.Message",
          "name": "",
          "type": "tuple"
        }
      ],
      "stateMutability": "view",
      "type": "function"
    },
    {
      "inputs": [
        {
          "internalType": "address",
          "name": "to",
          "type": "address"
        }
      ],
      "name": "getPublicKey",
      "outputs": [
        {
          "internalType": "string",
          "name": "",
          "type": "string"
        }
      ],
      "stateMutability": "view",
      "type": "function"
    },
    {
      "inputs": [
        {
          "internalType": "address",
          "name": "user",
          "type": "address"
        }
      ],
      "name": "getRecievedBalance",
      "outputs": [
        {
          "internalType": "uint256",
          "name": "",
          "type": "uint256"
        }
      ],
      "stateMutability": "view",
      "type": "function"
    },
    {
      "inputs": [
        {
          "internalType": "uint256",
          "name": "id",
          "type": "uint256"
        }
      ],
      "name": "getRecievedMessageByIndex",
      "outputs": [
        {
          "internalType": "uint256",
          "name": "",
          "type": "uint256"
        }
      ],
      "stateMutability": "view",
      "type": "function"
    },
    {
      "inputs": [
        {
          "internalType": "address",
          "name": "user",
          "type": "address"
        }
      ],
      "name": "getSentBalance",
      "outputs": [
        {
          "internalType": "uint256",
          "name": "",
          "type": "uint256"
        }
      ],
      "stateMutability": "view",
      "type": "function"
    },
    {
      "inputs": [
        {
          "internalType": "uint256",
          "name": "id",
          "type": "uint256"
        }
      ],
      "name": "getSentMessageByIndex",
      "outputs": [
        {
          "internalType": "uint256",
          "name": "",
          "type": "uint256"
        }
      ],
      "stateMutability": "view",
      "type": "function"
    },
    {
      "inputs": [
        {
          "internalType": "address",
          "name": "from",
          "type": "address"
        },
        {
          "internalType": "address",
          "name": "to",
          "type": "address"
        },
        {
          "internalType": "string",
          "name": "URI",
          "type": "string"
        }
      ],
      "name": "sendMessage",
      "outputs": [],
      "stateMutability": "nonpayable",
      "type": "function"
    },
    {
      "inputs": [
        {
          "internalType": "address",
          "name": "user",
          "type": "address"
        },
        {
          "internalType": "string",
          "name": "keyURI",
          "type": "string"
        }
      ],
      "name": "setPublicKey",
      "outputs": [],
      "stateMutability": "nonpayable",
      "type": "function"
    }
  ],
  "bytecode": "0x608060405234801561001057600080fd5b50611664806100206000396000f3fe608060405234801561001057600080fd5b50600436106100885760003560e01c8063857cdbb81161005b578063857cdbb81461013957806386f79edb14610169578063b88e318d14610199578063e4e3b150146101b557610088565b80632cecc1011461008d5780632f67d416146100bd5780632fcb19a9146100d95780637626034414610109575b600080fd5b6100a760048036038101906100a29190610e23565b6101e5565b6040516100b491906111e6565b60405180910390f35b6100d760048036038101906100d29190610eb3565b61022e565b005b6100f360048036038101906100ee9190610f07565b61039c565b60405161010091906111e6565b60405180910390f35b610123600480360381019061011e9190610f07565b610445565b60405161013091906111e6565b60405180910390f35b610153600480360381019061014e9190610e23565b6104ee565b60405161016091906110e2565b60405180910390f35b610183600480360381019061017e9190610f07565b61064a565b60405161019091906111c4565b60405180910390f35b6101b360048036038101906101ae9190610e4c565b61085b565b005b6101cf60048036038101906101ca9190610e23565b610c58565b6040516101dc91906111e6565b60405180910390f35b6000600560008373ffffffffffffffffffffffffffffffffffffffff1673ffffffffffffffffffffffffffffffffffffffff168152602001908152602001600020549050919050565b3373ffffffffffffffffffffffffffffffffffffffff168273ffffffffffffffffffffffffffffffffffffffff161461029c576040517f08c379a000000000000000000000000000000000000000000000000000000000815260040161029390611144565b60405180910390fd5b600160008373ffffffffffffffffffffffffffffffffffffffff1673ffffffffffffffffffffffffffffffffffffffff16815260200190815260200160002060009054906101000a900460ff166103455760018060008473ffffffffffffffffffffffffffffffffffffffff1673ffffffffffffffffffffffffffffffffffffffff16815260200190815260200160002060006101000a81548160ff0219169083151502179055505b806000808473ffffffffffffffffffffffffffffffffffffffff1673ffffffffffffffffffffffffffffffffffffffff1681526020019081526020016000209080519060200190610397929190610ca1565b505050565b6000803390506103ab816101e5565b83106103ec576040517f08c379a00000000000000000000000000000000000000000000000000000000081526004016103e390611104565b60405180910390fd5b600760008273ffffffffffffffffffffffffffffffffffffffff1673ffffffffffffffffffffffffffffffffffffffff168152602001908152602001600020600084815260200190815260200160002054915050919050565b60008033905061045481610c58565b8310610495576040517f08c379a000000000000000000000000000000000000000000000000000000000815260040161048c90611104565b60405180910390fd5b600660008273ffffffffffffffffffffffffffffffffffffffff1673ffffffffffffffffffffffffffffffffffffffff168152602001908152602001600020600084815260200190815260200160002054915050919050565b6060600160008373ffffffffffffffffffffffffffffffffffffffff1673ffffffffffffffffffffffffffffffffffffffff16815260200190815260200160002060009054906101000a900460ff1661057c576040517f08c379a000000000000000000000000000000000000000000000000000000000815260040161057390611124565b60405180910390fd5b6000808373ffffffffffffffffffffffffffffffffffffffff1673ffffffffffffffffffffffffffffffffffffffff16815260200190815260200160002080546105c590611302565b80601f01602080910402602001604051908101604052809291908181526020018280546105f190611302565b801561063e5780601f106106135761010080835404028352916020019161063e565b820191906000526020600020905b81548152906001019060200180831161062157829003601f168201915b50505050509050919050565b610652610d27565b600073ffffffffffffffffffffffffffffffffffffffff166003600084815260200190815260200160002060000160009054906101000a900473ffffffffffffffffffffffffffffffffffffffff1673ffffffffffffffffffffffffffffffffffffffff1614156106f8576040517f08c379a00000000000000000000000000000000000000000000000000000000081526004016106ef90611164565b60405180910390fd5b600360008381526020019081526020016000206040518060600160405290816000820160009054906101000a900473ffffffffffffffffffffffffffffffffffffffff1673ffffffffffffffffffffffffffffffffffffffff1673ffffffffffffffffffffffffffffffffffffffff1681526020016001820160009054906101000a900473ffffffffffffffffffffffffffffffffffffffff1673ffffffffffffffffffffffffffffffffffffffff1673ffffffffffffffffffffffffffffffffffffffff1681526020016002820180546107d290611302565b80601f01602080910402602001604051908101604052809291908181526020018280546107fe90611302565b801561084b5780601f106108205761010080835404028352916020019161084b565b820191906000526020600020905b81548152906001019060200180831161082e57829003601f168201915b5050505050815250509050919050565b3373ffffffffffffffffffffffffffffffffffffffff168373ffffffffffffffffffffffffffffffffffffffff16146108c9576040517f08c379a00000000000000000000000000000000000000000000000000000000081526004016108c090611184565b60405180910390fd5b600160008373ffffffffffffffffffffffffffffffffffffffff1673ffffffffffffffffffffffffffffffffffffffff16815260200190815260200160002060009054906101000a900460ff16610955576040517f08c379a000000000000000000000000000000000000000000000000000000000815260040161094c906111a4565b60405180910390fd5b600060405180606001604052808573ffffffffffffffffffffffffffffffffffffffff1681526020018473ffffffffffffffffffffffffffffffffffffffff168152602001838152509050600260008154809291906109b390611365565b91905055508060036000600254815260200190815260200160002060008201518160000160006101000a81548173ffffffffffffffffffffffffffffffffffffffff021916908373ffffffffffffffffffffffffffffffffffffffff16021790555060208201518160010160006101000a81548173ffffffffffffffffffffffffffffffffffffffff021916908373ffffffffffffffffffffffffffffffffffffffff1602179055506040820151816002019080519060200190610a78929190610ca1565b50905050600254600660008573ffffffffffffffffffffffffffffffffffffffff1673ffffffffffffffffffffffffffffffffffffffff1681526020019081526020016000206000600460008773ffffffffffffffffffffffffffffffffffffffff1673ffffffffffffffffffffffffffffffffffffffff16815260200190815260200160002054815260200190815260200160002081905550600460008473ffffffffffffffffffffffffffffffffffffffff1673ffffffffffffffffffffffffffffffffffffffff1681526020019081526020016000206000815480929190610b6290611365565b9190505550600254600760008673ffffffffffffffffffffffffffffffffffffffff1673ffffffffffffffffffffffffffffffffffffffff1681526020019081526020016000206000600560008873ffffffffffffffffffffffffffffffffffffffff1673ffffffffffffffffffffffffffffffffffffffff16815260200190815260200160002054815260200190815260200160002081905550600560008573ffffffffffffffffffffffffffffffffffffffff1673ffffffffffffffffffffffffffffffffffffffff1681526020019081526020016000206000815480929190610c4d90611365565b919050555050505050565b6000600460008373ffffffffffffffffffffffffffffffffffffffff1673ffffffffffffffffffffffffffffffffffffffff168152602001908152602001600020549050919050565b828054610cad90611302565b90600052602060002090601f016020900481019282610ccf5760008555610d16565b82601f10610ce857805160ff1916838001178555610d16565b82800160010185558215610d16579182015b82811115610d15578251825591602001919060010190610cfa565b5b509050610d239190610d74565b5090565b6040518060600160405280600073ffffffffffffffffffffffffffffffffffffffff168152602001600073ffffffffffffffffffffffffffffffffffffffff168152602001606081525090565b5b80821115610d8d576000816000905550600101610d75565b5090565b6000610da4610d9f84611226565b611201565b905082815260208101848484011115610dbc57600080fd5b610dc78482856112c0565b509392505050565b600081359050610dde81611600565b92915050565b600082601f830112610df557600080fd5b8135610e05848260208601610d91565b91505092915050565b600081359050610e1d81611617565b92915050565b600060208284031215610e3557600080fd5b6000610e4384828501610dcf565b91505092915050565b600080600060608486031215610e6157600080fd5b6000610e6f86828701610dcf565b9350506020610e8086828701610dcf565b925050604084013567ffffffffffffffff811115610e9d57600080fd5b610ea986828701610de4565b9150509250925092565b60008060408385031215610ec657600080fd5b6000610ed485828601610dcf565b925050602083013567ffffffffffffffff811115610ef157600080fd5b610efd85828601610de4565b9150509250929050565b600060208284031215610f1957600080fd5b6000610f2784828501610e0e565b91505092915050565b610f3981611284565b82525050565b6000610f4a82611257565b610f548185611262565b9350610f648185602086016112cf565b610f6d8161143b565b840191505092915050565b6000610f8382611257565b610f8d8185611273565b9350610f9d8185602086016112cf565b610fa68161143b565b840191505092915050565b6000610fbe601e83611273565b9150610fc98261144c565b602082019050919050565b6000610fe1603483611273565b9150610fec82611475565b604082019050919050565b6000611004602a83611273565b915061100f826114c4565b604082019050919050565b6000611027602983611273565b915061103282611513565b604082019050919050565b600061104a603783611273565b915061105582611562565b604082019050919050565b600061106d603683611273565b9150611078826115b1565b604082019050919050565b600060608301600083015161109b6000860182610f30565b5060208301516110ae6020860182610f30565b50604083015184820360408601526110c68282610f3f565b9150508091505092915050565b6110dc816112b6565b82525050565b600060208201905081810360008301526110fc8184610f78565b905092915050565b6000602082019050818103600083015261111d81610fb1565b9050919050565b6000602082019050818103600083015261113d81610fd4565b9050919050565b6000602082019050818103600083015261115d81610ff7565b9050919050565b6000602082019050818103600083015261117d8161101a565b9050919050565b6000602082019050818103600083015261119d8161103d565b9050919050565b600060208201905081810360008301526111bd81611060565b9050919050565b600060208201905081810360008301526111de8184611083565b905092915050565b60006020820190506111fb60008301846110d3565b92915050565b600061120b61121c565b90506112178282611334565b919050565b6000604051905090565b600067ffffffffffffffff8211156112415761124061140c565b5b61124a8261143b565b9050602081019050919050565b600081519050919050565b600082825260208201905092915050565b600082825260208201905092915050565b600061128f82611296565b9050919050565b600073ffffffffffffffffffffffffffffffffffffffff82169050919050565b6000819050919050565b82818337600083830152505050565b60005b838110156112ed5780820151818401526020810190506112d2565b838111156112fc576000848401525b50505050565b6000600282049050600182168061131a57607f821691505b6020821081141561132e5761132d6113dd565b5b50919050565b61133d8261143b565b810181811067ffffffffffffffff8211171561135c5761135b61140c565b5b80604052505050565b6000611370826112b6565b91507fffffffffffffffffffffffffffffffffffffffffffffffffffffffffffffffff8214156113a3576113a26113ae565b5b600182019050919050565b7f4e487b7100000000000000000000000000000000000000000000000000000000600052601160045260246000fd5b7f4e487b7100000000000000000000000000000000000000000000000000000000600052602260045260246000fd5b7f4e487b7100000000000000000000000000000000000000000000000000000000600052604160045260246000fd5b6000601f19601f8301169050919050565b7f4d657373656e6765723a20496e646578206f7574206f6620626f756e64730000600082015250565b7f4d657373656e6765723a2052657175657374696e67207075626c6963206b657960008201527f206f66206e6f6e6578697374656e742075736572000000000000000000000000602082015250565b7f4d657373656e6765723a2055736572206e6f7420746865207472616e7361637460008201527f696f6e2073656e64657200000000000000000000000000000000000000000000602082015250565b7f4d657373656e6765723a2052657175657374696e67206e6f6e6578697374656e60008201527f74206d6573736167650000000000000000000000000000000000000000000000602082015250565b7f4d657373656e6765723a204d657373616765206e6f74206265696e672073656e60008201527f74206279207472616e73616374696f6e2073656e646572000000000000000000602082015250565b7f4d657373656e6765723a20547972696e6720746f2073656e64206d657373616760008201527f6520746f206e6f6e6578697374656e74206f776e657200000000000000000000602082015250565b61160981611284565b811461161457600080fd5b50565b611620816112b6565b811461162b57600080fd5b5056fea2646970667358221220ffffaba9590bf049d473d3da1c4f7eb0f4852f6eb6b1909ab86ec1bd76144dfa64736f6c63430008030033",
  "linkReferences": {},
  "deployedLinkReferences": {}
}