{
  "_format": "hh-sol-artifact-1",
  "contractName": "Messenger",
  "sourceName": "contracts/Messenger.sol",
  "abi": [
    {
      "anonymous": false,
      "inputs": [
        {
          "indexed": false,
          "internalType": "address",
          "name": "from",
          "type": "address"
        },
        {
          "indexed": false,
          "internalType": "address",
          "name": "to",
          "type": "address"
        }
      ],
      "name": "MessageSent",
      "type": "event"
    },
    {
      "anonymous": false,
      "inputs": [
        {
          "indexed": false,
          "internalType": "address",
          "name": "user",
          "type": "address"
        },
        {
          "indexed": false,
          "internalType": "string",
          "name": "key",
          "type": "string"
        }
      ],
      "name": "SetPublicKey",
      "type": "event"
    },
    {
      "inputs": [
        {
          "internalType": "uint256",
          "name": "id",
          "type": "uint256"
        }
      ],
      "name": "getMessage",
      "outputs": [
        {
          "components": [
            {
              "internalType": "address",
              "name": "from",
              "type": "address"
            },
            {
              "internalType": "address",
              "name": "to",
              "type": "address"
            },
            {
              "internalType": "string",
              "name": "message",
              "type": "string"
            }
          ],
          "internalType": "struct Messenger.Message",
          "name": "",
          "type": "tuple"
        }
      ],
      "stateMutability": "view",
      "type": "function"
    },
    {
      "inputs": [
        {
          "internalType": "address",
          "name": "to",
          "type": "address"
        }
      ],
      "name": "getPublicKey",
      "outputs": [
        {
          "internalType": "string",
          "name": "",
          "type": "string"
        }
      ],
      "stateMutability": "view",
      "type": "function"
    },
    {
      "inputs": [
        {
          "internalType": "address",
          "name": "user",
          "type": "address"
        }
      ],
      "name": "getRecievedBalance",
      "outputs": [
        {
          "internalType": "uint256",
          "name": "",
          "type": "uint256"
        }
      ],
      "stateMutability": "view",
      "type": "function"
    },
    {
      "inputs": [
        {
          "internalType": "uint256",
          "name": "id",
          "type": "uint256"
        }
      ],
      "name": "getRecievedMessageByIndex",
      "outputs": [
        {
          "internalType": "uint256",
          "name": "",
          "type": "uint256"
        }
      ],
      "stateMutability": "view",
      "type": "function"
    },
    {
      "inputs": [
        {
          "internalType": "address",
          "name": "user",
          "type": "address"
        }
      ],
      "name": "getSentBalance",
      "outputs": [
        {
          "internalType": "uint256",
          "name": "",
          "type": "uint256"
        }
      ],
      "stateMutability": "view",
      "type": "function"
    },
    {
      "inputs": [
        {
          "internalType": "uint256",
          "name": "id",
          "type": "uint256"
        }
      ],
      "name": "getSentMessageByIndex",
      "outputs": [
        {
          "internalType": "uint256",
          "name": "",
          "type": "uint256"
        }
      ],
      "stateMutability": "view",
      "type": "function"
    },
    {
      "inputs": [],
      "name": "name",
      "outputs": [
        {
          "internalType": "string",
          "name": "",
          "type": "string"
        }
      ],
      "stateMutability": "view",
      "type": "function"
    },
    {
      "inputs": [
        {
          "internalType": "address",
          "name": "from",
          "type": "address"
        },
        {
          "internalType": "address",
          "name": "to",
          "type": "address"
        },
        {
          "internalType": "string",
          "name": "URI",
          "type": "string"
        }
      ],
      "name": "sendMessage",
      "outputs": [],
      "stateMutability": "nonpayable",
      "type": "function"
    },
    {
      "inputs": [
        {
          "internalType": "address",
          "name": "user",
          "type": "address"
        },
        {
          "internalType": "string",
          "name": "keyURI",
          "type": "string"
        }
      ],
      "name": "setPublicKey",
      "outputs": [],
      "stateMutability": "nonpayable",
      "type": "function"
    }
  ],
  "bytecode": "0x60806040526040518060400160405280600c81526020017f4574684d657373656e6765720000000000000000000000000000000000000000815250600290805190602001906200005192919062000066565b503480156200005f57600080fd5b506200017b565b828054620000749062000116565b90600052602060002090601f016020900481019282620000985760008555620000e4565b82601f10620000b357805160ff1916838001178555620000e4565b82800160010185558215620000e4579182015b82811115620000e3578251825591602001919060010190620000c6565b5b509050620000f39190620000f7565b5090565b5b8082111562000112576000816000905550600101620000f8565b5090565b600060028204905060018216806200012f57607f821691505b602082108114156200014657620001456200014c565b5b50919050565b7f4e487b7100000000000000000000000000000000000000000000000000000000600052602260045260246000fd5b6116c1806200018b6000396000f3fe608060405234801561001057600080fd5b50600436106100935760003560e01c806376260344116100665780637626034414610132578063857cdbb81461016257806386f79edb14610192578063b88e318d146101c2578063e4e3b150146101de57610093565b806306fdde03146100985780632cecc101146100b65780632f67d416146100e65780632fcb19a914610102575b600080fd5b6100a061020e565b6040516100ad91906111ae565b60405180910390f35b6100d060048036038101906100cb9190610eaa565b6102a0565b6040516100dd9190611292565b60405180910390f35b61010060048036038101906100fb9190610f3a565b6102e9565b005b61011c60048036038101906101179190610f8e565b610490565b6040516101299190611292565b60405180910390f35b61014c60048036038101906101479190610f8e565b610539565b6040516101599190611292565b60405180910390f35b61017c60048036038101906101779190610eaa565b6105e2565b60405161018991906111ae565b60405180910390f35b6101ac60048036038101906101a79190610f8e565b61073e565b6040516101b99190611270565b60405180910390f35b6101dc60048036038101906101d79190610ed3565b6108a9565b005b6101f860048036038101906101f39190610eaa565b610cdf565b6040516102059190611292565b60405180910390f35b60606002805461021d906113ae565b80601f0160208091040260200160405190810160405280929190818152602001828054610249906113ae565b80156102965780601f1061026b57610100808354040283529160200191610296565b820191906000526020600020905b81548152906001019060200180831161027957829003601f168201915b5050505050905090565b6000600660008373ffffffffffffffffffffffffffffffffffffffff1673ffffffffffffffffffffffffffffffffffffffff168152602001908152602001600020549050919050565b3373ffffffffffffffffffffffffffffffffffffffff168273ffffffffffffffffffffffffffffffffffffffff1614610357576040517f08c379a000000000000000000000000000000000000000000000000000000000815260040161034e90611230565b60405180910390fd5b600160008373ffffffffffffffffffffffffffffffffffffffff1673ffffffffffffffffffffffffffffffffffffffff16815260200190815260200160002060009054906101000a900460ff166104005760018060008473ffffffffffffffffffffffffffffffffffffffff1673ffffffffffffffffffffffffffffffffffffffff16815260200190815260200160002060006101000a81548160ff0219169083151502179055505b806000808473ffffffffffffffffffffffffffffffffffffffff1673ffffffffffffffffffffffffffffffffffffffff1681526020019081526020016000209080519060200190610452929190610d28565b507f3d017ab45425e057852254edc0e8273798f1037d299fb9f86e31062a2f90c9c1828260405161048492919061117e565b60405180910390a15050565b60008033905061049f816102a0565b83106104e0576040517f08c379a00000000000000000000000000000000000000000000000000000000081526004016104d7906111d0565b60405180910390fd5b600860008273ffffffffffffffffffffffffffffffffffffffff1673ffffffffffffffffffffffffffffffffffffffff168152602001908152602001600020600084815260200190815260200160002054915050919050565b60008033905061054881610cdf565b8310610589576040517f08c379a0000000000000000000000000000000000000000000000000000000008152600401610580906111d0565b60405180910390fd5b600760008273ffffffffffffffffffffffffffffffffffffffff1673ffffffffffffffffffffffffffffffffffffffff168152602001908152602001600020600084815260200190815260200160002054915050919050565b6060600160008373ffffffffffffffffffffffffffffffffffffffff1673ffffffffffffffffffffffffffffffffffffffff16815260200190815260200160002060009054906101000a900460ff16610670576040517f08c379a000000000000000000000000000000000000000000000000000000000815260040161066790611210565b60405180910390fd5b6000808373ffffffffffffffffffffffffffffffffffffffff1673ffffffffffffffffffffffffffffffffffffffff16815260200190815260200160002080546106b9906113ae565b80601f01602080910402602001604051908101604052809291908181526020018280546106e5906113ae565b80156107325780601f1061070757610100808354040283529160200191610732565b820191906000526020600020905b81548152906001019060200180831161071557829003601f168201915b50505050509050919050565b610746610dae565b600460008381526020019081526020016000206040518060600160405290816000820160009054906101000a900473ffffffffffffffffffffffffffffffffffffffff1673ffffffffffffffffffffffffffffffffffffffff1673ffffffffffffffffffffffffffffffffffffffff1681526020016001820160009054906101000a900473ffffffffffffffffffffffffffffffffffffffff1673ffffffffffffffffffffffffffffffffffffffff1673ffffffffffffffffffffffffffffffffffffffff168152602001600282018054610820906113ae565b80601f016020809104026020016040519081016040528092919081815260200182805461084c906113ae565b80156108995780601f1061086e57610100808354040283529160200191610899565b820191906000526020600020905b81548152906001019060200180831161087c57829003601f168201915b5050505050815250509050919050565b3373ffffffffffffffffffffffffffffffffffffffff168373ffffffffffffffffffffffffffffffffffffffff1614610917576040517f08c379a000000000000000000000000000000000000000000000000000000000815260040161090e90611250565b60405180910390fd5b600160008373ffffffffffffffffffffffffffffffffffffffff1673ffffffffffffffffffffffffffffffffffffffff16815260200190815260200160002060009054906101000a900460ff166109a3576040517f08c379a000000000000000000000000000000000000000000000000000000000815260040161099a906111f0565b60405180910390fd5b600060405180606001604052808573ffffffffffffffffffffffffffffffffffffffff1681526020018473ffffffffffffffffffffffffffffffffffffffff16815260200183815250905060036000815480929190610a0190611411565b91905055508060046000600354815260200190815260200160002060008201518160000160006101000a81548173ffffffffffffffffffffffffffffffffffffffff021916908373ffffffffffffffffffffffffffffffffffffffff16021790555060208201518160010160006101000a81548173ffffffffffffffffffffffffffffffffffffffff021916908373ffffffffffffffffffffffffffffffffffffffff1602179055506040820151816002019080519060200190610ac6929190610d28565b50905050600354600760008573ffffffffffffffffffffffffffffffffffffffff1673ffffffffffffffffffffffffffffffffffffffff1681526020019081526020016000206000600560008773ffffffffffffffffffffffffffffffffffffffff1673ffffffffffffffffffffffffffffffffffffffff16815260200190815260200160002054815260200190815260200160002081905550600560008473ffffffffffffffffffffffffffffffffffffffff1673ffffffffffffffffffffffffffffffffffffffff1681526020019081526020016000206000815480929190610bb090611411565b9190505550600354600860008673ffffffffffffffffffffffffffffffffffffffff1673ffffffffffffffffffffffffffffffffffffffff1681526020019081526020016000206000600660008873ffffffffffffffffffffffffffffffffffffffff1673ffffffffffffffffffffffffffffffffffffffff16815260200190815260200160002054815260200190815260200160002081905550600660008573ffffffffffffffffffffffffffffffffffffffff1673ffffffffffffffffffffffffffffffffffffffff1681526020019081526020016000206000815480929190610c9b90611411565b91905055507f921d068ef716f8cffdc14d917b9e3b77c957cd11d308c2c4f92732cc0190f8618484604051610cd1929190611155565b60405180910390a150505050565b6000600560008373ffffffffffffffffffffffffffffffffffffffff1673ffffffffffffffffffffffffffffffffffffffff168152602001908152602001600020549050919050565b828054610d34906113ae565b90600052602060002090601f016020900481019282610d565760008555610d9d565b82601f10610d6f57805160ff1916838001178555610d9d565b82800160010185558215610d9d579182015b82811115610d9c578251825591602001919060010190610d81565b5b509050610daa9190610dfb565b5090565b6040518060600160405280600073ffffffffffffffffffffffffffffffffffffffff168152602001600073ffffffffffffffffffffffffffffffffffffffff168152602001606081525090565b5b80821115610e14576000816000905550600101610dfc565b5090565b6000610e2b610e26846112d2565b6112ad565b905082815260208101848484011115610e4357600080fd5b610e4e84828561136c565b509392505050565b600081359050610e658161165d565b92915050565b600082601f830112610e7c57600080fd5b8135610e8c848260208601610e18565b91505092915050565b600081359050610ea481611674565b92915050565b600060208284031215610ebc57600080fd5b6000610eca84828501610e56565b91505092915050565b600080600060608486031215610ee857600080fd5b6000610ef686828701610e56565b9350506020610f0786828701610e56565b925050604084013567ffffffffffffffff811115610f2457600080fd5b610f3086828701610e6b565b9150509250925092565b60008060408385031215610f4d57600080fd5b6000610f5b85828601610e56565b925050602083013567ffffffffffffffff811115610f7857600080fd5b610f8485828601610e6b565b9150509250929050565b600060208284031215610fa057600080fd5b6000610fae84828501610e95565b91505092915050565b610fc081611330565b82525050565b610fcf81611330565b82525050565b6000610fe082611303565b610fea818561130e565b9350610ffa81856020860161137b565b611003816114e7565b840191505092915050565b600061101982611303565b611023818561131f565b935061103381856020860161137b565b61103c816114e7565b840191505092915050565b6000611054601e8361131f565b915061105f826114f8565b602082019050919050565b600061107760358361131f565b915061108282611521565b604082019050919050565b600061109a60348361131f565b91506110a582611570565b604082019050919050565b60006110bd602a8361131f565b91506110c8826115bf565b604082019050919050565b60006110e060378361131f565b91506110eb8261160e565b604082019050919050565b600060608301600083015161110e6000860182610fb7565b5060208301516111216020860182610fb7565b50604083015184820360408601526111398282610fd5565b9150508091505092915050565b61114f81611362565b82525050565b600060408201905061116a6000830185610fc6565b6111776020830184610fc6565b9392505050565b60006040820190506111936000830185610fc6565b81810360208301526111a5818461100e565b90509392505050565b600060208201905081810360008301526111c8818461100e565b905092915050565b600060208201905081810360008301526111e981611047565b9050919050565b600060208201905081810360008301526112098161106a565b9050919050565b600060208201905081810360008301526112298161108d565b9050919050565b60006020820190508181036000830152611249816110b0565b9050919050565b60006020820190508181036000830152611269816110d3565b9050919050565b6000602082019050818103600083015261128a81846110f6565b905092915050565b60006020820190506112a76000830184611146565b92915050565b60006112b76112c8565b90506112c382826113e0565b919050565b6000604051905090565b600067ffffffffffffffff8211156112ed576112ec6114b8565b5b6112f6826114e7565b9050602081019050919050565b600081519050919050565b600082825260208201905092915050565b600082825260208201905092915050565b600061133b82611342565b9050919050565b600073ffffffffffffffffffffffffffffffffffffffff82169050919050565b6000819050919050565b82818337600083830152505050565b60005b8381101561139957808201518184015260208101905061137e565b838111156113a8576000848401525b50505050565b600060028204905060018216806113c657607f821691505b602082108114156113da576113d9611489565b5b50919050565b6113e9826114e7565b810181811067ffffffffffffffff82111715611408576114076114b8565b5b80604052505050565b600061141c82611362565b91507fffffffffffffffffffffffffffffffffffffffffffffffffffffffffffffffff82141561144f5761144e61145a565b5b600182019050919050565b7f4e487b7100000000000000000000000000000000000000000000000000000000600052601160045260246000fd5b7f4e487b7100000000000000000000000000000000000000000000000000000000600052602260045260246000fd5b7f4e487b7100000000000000000000000000000000000000000000000000000000600052604160045260246000fd5b6000601f19601f8301169050919050565b7f4d657373656e6765723a20496e646578206f7574206f6620626f756e64730000600082015250565b7f4d657373656e6765723a20547279696e6720746f2073656e64206d657373616760008201527f6520746f206e6f6e6578697374656e7420757365720000000000000000000000602082015250565b7f4d657373656e6765723a2052657175657374696e67207075626c6963206b657960008201527f206f66206e6f6e6578697374656e742075736572000000000000000000000000602082015250565b7f4d657373656e6765723a2055736572206e6f7420746865207472616e7361637460008201527f696f6e2073656e64657200000000000000000000000000000000000000000000602082015250565b7f4d657373656e6765723a204d657373616765206e6f74206265696e672073656e60008201527f74206279207472616e73616374696f6e2073656e646572000000000000000000602082015250565b61166681611330565b811461167157600080fd5b50565b61167d81611362565b811461168857600080fd5b5056fea26469706673582212201de28660b55ee0d8dd9bea1f469c821286621e418f8515c3858794fd606ad7d364736f6c63430008030033",
  "linkReferences": {},
  "deployedLinkReferences": {}
}