{
  "_format": "hh-sol-artifact-1",
  "contractName": "Messenger",
  "sourceName": "contracts/Messenger.sol",
  "abi": [
    {
      "anonymous": false,
      "inputs": [
        {
          "indexed": false,
          "internalType": "address",
          "name": "from",
          "type": "address"
        },
        {
          "indexed": false,
          "internalType": "address",
          "name": "to",
          "type": "address"
        }
      ],
      "name": "MessageSent",
      "type": "event"
    },
    {
      "anonymous": false,
      "inputs": [
        {
          "indexed": false,
          "internalType": "address",
          "name": "user",
          "type": "address"
        },
        {
          "indexed": false,
          "internalType": "string",
          "name": "key",
          "type": "string"
        }
      ],
      "name": "SetPublicKey",
      "type": "event"
    },
    {
      "inputs": [
        {
          "internalType": "uint256",
          "name": "id",
          "type": "uint256"
        }
      ],
      "name": "getMessage",
      "outputs": [
        {
          "components": [
            {
              "internalType": "address",
              "name": "from",
              "type": "address"
            },
            {
              "internalType": "address",
              "name": "to",
              "type": "address"
            },
            {
              "internalType": "string",
              "name": "message",
              "type": "string"
            }
          ],
          "internalType": "struct Messenger.Message",
          "name": "",
          "type": "tuple"
        }
      ],
      "stateMutability": "view",
      "type": "function"
    },
    {
      "inputs": [
        {
          "internalType": "address",
          "name": "to",
          "type": "address"
        }
      ],
      "name": "getPublicKey",
      "outputs": [
        {
          "internalType": "string",
          "name": "",
          "type": "string"
        }
      ],
      "stateMutability": "view",
      "type": "function"
    },
    {
      "inputs": [
        {
          "internalType": "address",
          "name": "user",
          "type": "address"
        }
      ],
      "name": "getRecievedBalance",
      "outputs": [
        {
          "internalType": "uint256",
          "name": "",
          "type": "uint256"
        }
      ],
      "stateMutability": "view",
      "type": "function"
    },
    {
      "inputs": [
        {
          "internalType": "uint256",
          "name": "id",
          "type": "uint256"
        }
      ],
      "name": "getRecievedMessageByIndex",
      "outputs": [
        {
          "internalType": "uint256",
          "name": "",
          "type": "uint256"
        }
      ],
      "stateMutability": "view",
      "type": "function"
    },
    {
      "inputs": [
        {
          "internalType": "address",
          "name": "user",
          "type": "address"
        }
      ],
      "name": "getSentBalance",
      "outputs": [
        {
          "internalType": "uint256",
          "name": "",
          "type": "uint256"
        }
      ],
      "stateMutability": "view",
      "type": "function"
    },
    {
      "inputs": [
        {
          "internalType": "uint256",
          "name": "id",
          "type": "uint256"
        }
      ],
      "name": "getSentMessageByIndex",
      "outputs": [
        {
          "internalType": "uint256",
          "name": "",
          "type": "uint256"
        }
      ],
      "stateMutability": "view",
      "type": "function"
    },
    {
      "inputs": [],
      "name": "name",
      "outputs": [
        {
          "internalType": "string",
          "name": "",
          "type": "string"
        }
      ],
      "stateMutability": "view",
      "type": "function"
    },
    {
      "inputs": [
        {
          "internalType": "address",
          "name": "from",
          "type": "address"
        },
        {
          "internalType": "address",
          "name": "to",
          "type": "address"
        },
        {
          "internalType": "string",
          "name": "URI",
          "type": "string"
        }
      ],
      "name": "sendMessage",
      "outputs": [],
      "stateMutability": "nonpayable",
      "type": "function"
    },
    {
      "inputs": [
        {
          "internalType": "address",
          "name": "user",
          "type": "address"
        },
        {
          "internalType": "string",
          "name": "keyURI",
          "type": "string"
        }
      ],
      "name": "setPublicKey",
      "outputs": [],
      "stateMutability": "nonpayable",
      "type": "function"
    }
  ],
  "bytecode": "0x60806040526040518060400160405280600c81526020017f4574684d657373656e6765720000000000000000000000000000000000000000815250600290805190602001906200005192919062000066565b503480156200005f57600080fd5b506200017b565b828054620000749062000116565b90600052602060002090601f016020900481019282620000985760008555620000e4565b82601f10620000b357805160ff1916838001178555620000e4565b82800160010185558215620000e4579182015b82811115620000e3578251825591602001919060010190620000c6565b5b509050620000f39190620000f7565b5090565b5b8082111562000112576000816000905550600101620000f8565b5090565b600060028204905060018216806200012f57607f821691505b602082108114156200014657620001456200014c565b5b50919050565b7f4e487b7100000000000000000000000000000000000000000000000000000000600052602260045260246000fd5b6117f9806200018b6000396000f3fe608060405234801561001057600080fd5b50600436106100935760003560e01c806376260344116100665780637626034414610132578063857cdbb81461016257806386f79edb14610192578063b88e318d146101c2578063e4e3b150146101de57610093565b806306fdde03146100985780632cecc101146100b65780632f67d416146100e65780632fcb19a914610102575b600080fd5b6100a061020e565b6040516100ad9190611277565b60405180910390f35b6100d060048036038101906100cb9190610f50565b6102a0565b6040516100dd919061137b565b60405180910390f35b61010060048036038101906100fb9190610fe0565b6102e9565b005b61011c60048036038101906101179190611034565b610490565b604051610129919061137b565b60405180910390f35b61014c60048036038101906101479190611034565b610539565b604051610159919061137b565b60405180910390f35b61017c60048036038101906101779190610f50565b6105e2565b6040516101899190611277565b60405180910390f35b6101ac60048036038101906101a79190611034565b61073e565b6040516101b99190611359565b60405180910390f35b6101dc60048036038101906101d79190610f79565b61094f565b005b6101f860048036038101906101f39190610f50565b610d85565b604051610205919061137b565b60405180910390f35b60606002805461021d90611497565b80601f016020809104026020016040519081016040528092919081815260200182805461024990611497565b80156102965780601f1061026b57610100808354040283529160200191610296565b820191906000526020600020905b81548152906001019060200180831161027957829003601f168201915b5050505050905090565b6000600660008373ffffffffffffffffffffffffffffffffffffffff1673ffffffffffffffffffffffffffffffffffffffff168152602001908152602001600020549050919050565b3373ffffffffffffffffffffffffffffffffffffffff168273ffffffffffffffffffffffffffffffffffffffff1614610357576040517f08c379a000000000000000000000000000000000000000000000000000000000815260040161034e906112f9565b60405180910390fd5b600160008373ffffffffffffffffffffffffffffffffffffffff1673ffffffffffffffffffffffffffffffffffffffff16815260200190815260200160002060009054906101000a900460ff166104005760018060008473ffffffffffffffffffffffffffffffffffffffff1673ffffffffffffffffffffffffffffffffffffffff16815260200190815260200160002060006101000a81548160ff0219169083151502179055505b806000808473ffffffffffffffffffffffffffffffffffffffff1673ffffffffffffffffffffffffffffffffffffffff1681526020019081526020016000209080519060200190610452929190610dce565b507f3d017ab45425e057852254edc0e8273798f1037d299fb9f86e31062a2f90c9c18282604051610484929190611247565b60405180910390a15050565b60008033905061049f816102a0565b83106104e0576040517f08c379a00000000000000000000000000000000000000000000000000000000081526004016104d790611299565b60405180910390fd5b600860008273ffffffffffffffffffffffffffffffffffffffff1673ffffffffffffffffffffffffffffffffffffffff168152602001908152602001600020600084815260200190815260200160002054915050919050565b60008033905061054881610d85565b8310610589576040517f08c379a000000000000000000000000000000000000000000000000000000000815260040161058090611299565b60405180910390fd5b600760008273ffffffffffffffffffffffffffffffffffffffff1673ffffffffffffffffffffffffffffffffffffffff168152602001908152602001600020600084815260200190815260200160002054915050919050565b6060600160008373ffffffffffffffffffffffffffffffffffffffff1673ffffffffffffffffffffffffffffffffffffffff16815260200190815260200160002060009054906101000a900460ff16610670576040517f08c379a0000000000000000000000000000000000000000000000000000000008152600401610667906112d9565b60405180910390fd5b6000808373ffffffffffffffffffffffffffffffffffffffff1673ffffffffffffffffffffffffffffffffffffffff16815260200190815260200160002080546106b990611497565b80601f01602080910402602001604051908101604052809291908181526020018280546106e590611497565b80156107325780601f1061070757610100808354040283529160200191610732565b820191906000526020600020905b81548152906001019060200180831161071557829003601f168201915b50505050509050919050565b610746610e54565b600073ffffffffffffffffffffffffffffffffffffffff166004600084815260200190815260200160002060000160009054906101000a900473ffffffffffffffffffffffffffffffffffffffff1673ffffffffffffffffffffffffffffffffffffffff1614156107ec576040517f08c379a00000000000000000000000000000000000000000000000000000000081526004016107e390611319565b60405180910390fd5b600460008381526020019081526020016000206040518060600160405290816000820160009054906101000a900473ffffffffffffffffffffffffffffffffffffffff1673ffffffffffffffffffffffffffffffffffffffff1673ffffffffffffffffffffffffffffffffffffffff1681526020016001820160009054906101000a900473ffffffffffffffffffffffffffffffffffffffff1673ffffffffffffffffffffffffffffffffffffffff1673ffffffffffffffffffffffffffffffffffffffff1681526020016002820180546108c690611497565b80601f01602080910402602001604051908101604052809291908181526020018280546108f290611497565b801561093f5780601f106109145761010080835404028352916020019161093f565b820191906000526020600020905b81548152906001019060200180831161092257829003601f168201915b5050505050815250509050919050565b3373ffffffffffffffffffffffffffffffffffffffff168373ffffffffffffffffffffffffffffffffffffffff16146109bd576040517f08c379a00000000000000000000000000000000000000000000000000000000081526004016109b490611339565b60405180910390fd5b600160008373ffffffffffffffffffffffffffffffffffffffff1673ffffffffffffffffffffffffffffffffffffffff16815260200190815260200160002060009054906101000a900460ff16610a49576040517f08c379a0000000000000000000000000000000000000000000000000000000008152600401610a40906112b9565b60405180910390fd5b600060405180606001604052808573ffffffffffffffffffffffffffffffffffffffff1681526020018473ffffffffffffffffffffffffffffffffffffffff16815260200183815250905060036000815480929190610aa7906114fa565b91905055508060046000600354815260200190815260200160002060008201518160000160006101000a81548173ffffffffffffffffffffffffffffffffffffffff021916908373ffffffffffffffffffffffffffffffffffffffff16021790555060208201518160010160006101000a81548173ffffffffffffffffffffffffffffffffffffffff021916908373ffffffffffffffffffffffffffffffffffffffff1602179055506040820151816002019080519060200190610b6c929190610dce565b50905050600354600760008573ffffffffffffffffffffffffffffffffffffffff1673ffffffffffffffffffffffffffffffffffffffff1681526020019081526020016000206000600560008773ffffffffffffffffffffffffffffffffffffffff1673ffffffffffffffffffffffffffffffffffffffff16815260200190815260200160002054815260200190815260200160002081905550600560008473ffffffffffffffffffffffffffffffffffffffff1673ffffffffffffffffffffffffffffffffffffffff1681526020019081526020016000206000815480929190610c56906114fa565b9190505550600354600860008673ffffffffffffffffffffffffffffffffffffffff1673ffffffffffffffffffffffffffffffffffffffff1681526020019081526020016000206000600660008873ffffffffffffffffffffffffffffffffffffffff1673ffffffffffffffffffffffffffffffffffffffff16815260200190815260200160002054815260200190815260200160002081905550600660008573ffffffffffffffffffffffffffffffffffffffff1673ffffffffffffffffffffffffffffffffffffffff1681526020019081526020016000206000815480929190610d41906114fa565b91905055507f921d068ef716f8cffdc14d917b9e3b77c957cd11d308c2c4f92732cc0190f8618484604051610d7792919061121e565b60405180910390a150505050565b6000600560008373ffffffffffffffffffffffffffffffffffffffff1673ffffffffffffffffffffffffffffffffffffffff168152602001908152602001600020549050919050565b828054610dda90611497565b90600052602060002090601f016020900481019282610dfc5760008555610e43565b82601f10610e1557805160ff1916838001178555610e43565b82800160010185558215610e43579182015b82811115610e42578251825591602001919060010190610e27565b5b509050610e509190610ea1565b5090565b6040518060600160405280600073ffffffffffffffffffffffffffffffffffffffff168152602001600073ffffffffffffffffffffffffffffffffffffffff168152602001606081525090565b5b80821115610eba576000816000905550600101610ea2565b5090565b6000610ed1610ecc846113bb565b611396565b905082815260208101848484011115610ee957600080fd5b610ef4848285611455565b509392505050565b600081359050610f0b81611795565b92915050565b600082601f830112610f2257600080fd5b8135610f32848260208601610ebe565b91505092915050565b600081359050610f4a816117ac565b92915050565b600060208284031215610f6257600080fd5b6000610f7084828501610efc565b91505092915050565b600080600060608486031215610f8e57600080fd5b6000610f9c86828701610efc565b9350506020610fad86828701610efc565b925050604084013567ffffffffffffffff811115610fca57600080fd5b610fd686828701610f11565b9150509250925092565b60008060408385031215610ff357600080fd5b600061100185828601610efc565b925050602083013567ffffffffffffffff81111561101e57600080fd5b61102a85828601610f11565b9150509250929050565b60006020828403121561104657600080fd5b600061105484828501610f3b565b91505092915050565b61106681611419565b82525050565b61107581611419565b82525050565b6000611086826113ec565b61109081856113f7565b93506110a0818560208601611464565b6110a9816115d0565b840191505092915050565b60006110bf826113ec565b6110c98185611408565b93506110d9818560208601611464565b6110e2816115d0565b840191505092915050565b60006110fa601e83611408565b9150611105826115e1565b602082019050919050565b600061111d603583611408565b91506111288261160a565b604082019050919050565b6000611140603483611408565b915061114b82611659565b604082019050919050565b6000611163602a83611408565b915061116e826116a8565b604082019050919050565b6000611186602983611408565b9150611191826116f7565b604082019050919050565b60006111a9603783611408565b91506111b482611746565b604082019050919050565b60006060830160008301516111d7600086018261105d565b5060208301516111ea602086018261105d565b5060408301518482036040860152611202828261107b565b9150508091505092915050565b6112188161144b565b82525050565b6000604082019050611233600083018561106c565b611240602083018461106c565b9392505050565b600060408201905061125c600083018561106c565b818103602083015261126e81846110b4565b90509392505050565b6000602082019050818103600083015261129181846110b4565b905092915050565b600060208201905081810360008301526112b2816110ed565b9050919050565b600060208201905081810360008301526112d281611110565b9050919050565b600060208201905081810360008301526112f281611133565b9050919050565b6000602082019050818103600083015261131281611156565b9050919050565b6000602082019050818103600083015261133281611179565b9050919050565b600060208201905081810360008301526113528161119c565b9050919050565b6000602082019050818103600083015261137381846111bf565b905092915050565b6000602082019050611390600083018461120f565b92915050565b60006113a06113b1565b90506113ac82826114c9565b919050565b6000604051905090565b600067ffffffffffffffff8211156113d6576113d56115a1565b5b6113df826115d0565b9050602081019050919050565b600081519050919050565b600082825260208201905092915050565b600082825260208201905092915050565b60006114248261142b565b9050919050565b600073ffffffffffffffffffffffffffffffffffffffff82169050919050565b6000819050919050565b82818337600083830152505050565b60005b83811015611482578082015181840152602081019050611467565b83811115611491576000848401525b50505050565b600060028204905060018216806114af57607f821691505b602082108114156114c3576114c2611572565b5b50919050565b6114d2826115d0565b810181811067ffffffffffffffff821117156114f1576114f06115a1565b5b80604052505050565b60006115058261144b565b91507fffffffffffffffffffffffffffffffffffffffffffffffffffffffffffffffff82141561153857611537611543565b5b600182019050919050565b7f4e487b7100000000000000000000000000000000000000000000000000000000600052601160045260246000fd5b7f4e487b7100000000000000000000000000000000000000000000000000000000600052602260045260246000fd5b7f4e487b7100000000000000000000000000000000000000000000000000000000600052604160045260246000fd5b6000601f19601f8301169050919050565b7f4d657373656e6765723a20496e646578206f7574206f6620626f756e64730000600082015250565b7f4d657373656e6765723a20547279696e6720746f2073656e64206d657373616760008201527f6520746f206e6f6e6578697374656e7420757365720000000000000000000000602082015250565b7f4d657373656e6765723a2052657175657374696e67207075626c6963206b657960008201527f206f66206e6f6e6578697374656e742075736572000000000000000000000000602082015250565b7f4d657373656e6765723a2055736572206e6f7420746865207472616e7361637460008201527f696f6e2073656e64657200000000000000000000000000000000000000000000602082015250565b7f4d657373656e6765723a2052657175657374696e67206e6f6e6578697374656e60008201527f74206d6573736167650000000000000000000000000000000000000000000000602082015250565b7f4d657373656e6765723a204d657373616765206e6f74206265696e672073656e60008201527f74206279207472616e73616374696f6e2073656e646572000000000000000000602082015250565b61179e81611419565b81146117a957600080fd5b50565b6117b58161144b565b81146117c057600080fd5b5056fea26469706673582212201f9b4c694fa104cb873b193579dcd752f496c16bb42456c2690f8f183e9dbd8764736f6c63430008030033",
  "linkReferences": {},
  "deployedLinkReferences": {}
}